{
  "_format": "hh-sol-artifact-1",
  "contractName": "LikesPortal",
  "sourceName": "contracts/LikesPortal.sol",
  "abi": [
    {
      "inputs": [],
      "stateMutability": "nonpayable",
      "type": "constructor"
    },
    {
      "inputs": [
        {
          "internalType": "string",
          "name": "_url",
          "type": "string"
        },
        {
          "internalType": "string[]",
          "name": "_labels",
          "type": "string[]"
        }
      ],
      "name": "addContent",
      "outputs": [],
      "stateMutability": "nonpayable",
      "type": "function"
    },
    {
      "inputs": [
        {
          "internalType": "uint256",
          "name": "contentId",
          "type": "uint256"
        }
      ],
      "name": "getTotalLikes",
      "outputs": [
        {
          "internalType": "uint256",
          "name": "",
          "type": "uint256"
        }
      ],
      "stateMutability": "view",
      "type": "function"
    },
    {
      "inputs": [
        {
          "internalType": "uint256",
          "name": "contentId",
          "type": "uint256"
        }
      ],
      "name": "like",
      "outputs": [],
      "stateMutability": "nonpayable",
      "type": "function"
    },
    {
      "inputs": [
        {
          "internalType": "uint256",
          "name": "contentId",
          "type": "uint256"
        }
      ],
      "name": "listContent",
      "outputs": [],
      "stateMutability": "view",
      "type": "function"
    }
  ],
  "bytecode": "0x60806040523480156200001157600080fd5b50620000416040518060600160405280602581526020016200145f602591396200004760201b620005c41760201c565b6200023f565b620000e7816040516024016200005e9190620001b8565b6040516020818303038152906040527f41304fac000000000000000000000000000000000000000000000000000000007bffffffffffffffffffffffffffffffffffffffffffffffffffffffff19166020820180517bffffffffffffffffffffffffffffffffffffffffffffffffffffffff8381831617835250505050620000ea60201b60201c565b50565b62000110816200010b6200011360201b6200065d176200013460201b60201c565b60201c565b50565b60006a636f6e736f6c652e6c6f679050600080835160208501845afa505050565b6200014860201b620009be17819050919050565b7f4e487b7100000000000000000000000000000000000000000000000000000000600052605160045260246000fd5b60006200018482620001dc565b620001908185620001e7565b9350620001a2818560208601620001f8565b620001ad816200022e565b840191505092915050565b60006020820190508181036000830152620001d4818462000177565b905092915050565b600081519050919050565b600082825260208201905092915050565b60005b8381101562000218578082015181840152602081019050620001fb565b8381111562000228576000848401525b50505050565b6000601f19601f8301169050919050565b611210806200024f6000396000f3fe608060405234801561001057600080fd5b506004361061004c5760003560e01c80630feb80e61461005157806333e4125a14610081578063e82935da1461009d578063ef2c7cd7146100b9575b600080fd5b61006b60048036038101906100669190610cc4565b6100d5565b6040516100789190610eb8565b60405180910390f35b61009b60048036038101906100969190610cc4565b6101c9565b005b6100b760048036038101906100b29190610cc4565b6103ab565b005b6100d360048036038101906100ce9190610c58565b61052a565b005b60006101ac6040518060600160405280602f8152602001611181602f913960008085815260200190815260200160002060020154600080868152602001908152602001600020600001805461012990610ffa565b80601f016020809104026020016040519081016040528092919081815260200182805461015590610ffa565b80156101a25780601f10610177576101008083540402835291602001916101a2565b820191906000526020600020905b81548152906001019060200180831161018557829003601f168201915b505050505061067e565b600080838152602001908152602001600020600201549050919050565b61028860405180606001604052806023815260200161112b60239139600080848152602001908152602001600020600001805461020590610ffa565b80601f016020809104026020016040519081016040528092919081815260200182805461023190610ffa565b801561027e5780601f106102535761010080835404028352916020019161027e565b820191906000526020600020905b81548152906001019060200180831161026157829003601f168201915b505050505061071d565b60006001600083815260200190815260200160002080548060200260200160405190810160405280929190818152602001828054801561031d57602002820191906000526020600020905b8160009054906101000a900473ffffffffffffffffffffffffffffffffffffffff1673ffffffffffffffffffffffffffffffffffffffff16815260200190600101908083116102d3575b5050505050905060005b81518110156103a65761039360405180606001604052806033815260200161114e6033913982848481518110610386577f4e487b7100000000000000000000000000000000000000000000000000000000600052603260045260246000fd5b60200260200101516107b9565b808061039e9061102c565b915050610327565b505050565b60008082815260200190815260200160002060020160008154809291906103d19061102c565b919050555060016000828152602001908152602001600020339080600181540180825580915050600190039060005260206000200160009091909190916101000a81548173ffffffffffffffffffffffffffffffffffffffff021916908373ffffffffffffffffffffffffffffffffffffffff1602179055506105276040518060400160405280602081526020017f257320646575206a6f696e68612070617261206f20636f6e746575646f2025738152503360008085815260200190815260200160002060000180546104a490610ffa565b80601f01602080910402602001604051908101604052809291908181526020018280546104d090610ffa565b801561051d5780601f106104f25761010080835404028352916020019161051d565b820191906000526020600020905b81548152906001019060200180831161050057829003601f168201915b5050505050610858565b50565b81600080600254815260200190815260200160002060000190805190602001906105559291906109ed565b508060008060025481526020019081526020016000206001019080519060200190610581929190610a73565b506105a86040518060600160405280602b81526020016111b0602b913933846002546108f7565b600260008154809291906105bb9061102c565b91905055505050565b61065a816040516024016105d89190610d44565b6040516020818303038152906040527f41304fac000000000000000000000000000000000000000000000000000000007bffffffffffffffffffffffffffffffffffffffffffffffffffffffff19166020820180517bffffffffffffffffffffffffffffffffffffffffffffffffffffffff8381831617835250505050610999565b50565b60006a636f6e736f6c652e6c6f679050600080835160208501845afa505050565b61071883838360405160240161069693929190610e73565b6040516020818303038152906040527f5970e089000000000000000000000000000000000000000000000000000000007bffffffffffffffffffffffffffffffffffffffffffffffffffffffff19166020820180517bffffffffffffffffffffffffffffffffffffffffffffffffffffffff8381831617835250505050610999565b505050565b6107b58282604051602401610733929190610dfe565b6040516020818303038152906040527f4b5c4277000000000000000000000000000000000000000000000000000000007bffffffffffffffffffffffffffffffffffffffffffffffffffffffff19166020820180517bffffffffffffffffffffffffffffffffffffffffffffffffffffffff8381831617835250505050610999565b5050565b6108538383836040516024016107d193929190610e35565b6040516020818303038152906040527f1c7ec448000000000000000000000000000000000000000000000000000000007bffffffffffffffffffffffffffffffffffffffffffffffffffffffff19166020820180517bffffffffffffffffffffffffffffffffffffffffffffffffffffffff8381831617835250505050610999565b505050565b6108f283838360405160240161087093929190610d66565b6040516020818303038152906040527fe0e9ad4f000000000000000000000000000000000000000000000000000000007bffffffffffffffffffffffffffffffffffffffffffffffffffffffff19166020820180517bffffffffffffffffffffffffffffffffffffffffffffffffffffffff8381831617835250505050610999565b505050565b610993848484846040516024016109119493929190610dab565b6040516020818303038152906040527f91d1112e000000000000000000000000000000000000000000000000000000007bffffffffffffffffffffffffffffffffffffffffffffffffffffffff19166020820180517bffffffffffffffffffffffffffffffffffffffffffffffffffffffff8381831617835250505050610999565b50505050565b6109b0816109a861065d6109b3565b63ffffffff16565b50565b6109be819050919050565b7f4e487b7100000000000000000000000000000000000000000000000000000000600052605160045260246000fd5b8280546109f990610ffa565b90600052602060002090601f016020900481019282610a1b5760008555610a62565b82601f10610a3457805160ff1916838001178555610a62565b82800160010185558215610a62579182015b82811115610a61578251825591602001919060010190610a46565b5b509050610a6f9190610ad3565b5090565b828054828255906000526020600020908101928215610ac2579160200282015b82811115610ac1578251829080519060200190610ab19291906109ed565b5091602001919060010190610a93565b5b509050610acf9190610af0565b5090565b5b80821115610aec576000816000905550600101610ad4565b5090565b5b80821115610b105760008181610b079190610b14565b50600101610af1565b5090565b508054610b2090610ffa565b6000825580601f10610b325750610b51565b601f016020900490600052602060002090810190610b509190610ad3565b5b50565b6000610b67610b6284610f04565b610ed3565b9050808382526020820190508260005b85811015610ba75781358501610b8d8882610c19565b845260208401935060208301925050600181019050610b77565b5050509392505050565b6000610bc4610bbf84610f30565b610ed3565b905082815260208101848484011115610bdc57600080fd5b610be7848285610fb8565b509392505050565b600082601f830112610c0057600080fd5b8135610c10848260208601610b54565b91505092915050565b600082601f830112610c2a57600080fd5b8135610c3a848260208601610bb1565b91505092915050565b600081359050610c5281611113565b92915050565b60008060408385031215610c6b57600080fd5b600083013567ffffffffffffffff811115610c8557600080fd5b610c9185828601610c19565b925050602083013567ffffffffffffffff811115610cae57600080fd5b610cba85828601610bef565b9150509250929050565b600060208284031215610cd657600080fd5b6000610ce484828501610c43565b91505092915050565b610cf681610f7c565b82525050565b6000610d0782610f60565b610d118185610f6b565b9350610d21818560208601610fc7565b610d2a81611102565b840191505092915050565b610d3e81610fae565b82525050565b60006020820190508181036000830152610d5e8184610cfc565b905092915050565b60006060820190508181036000830152610d808186610cfc565b9050610d8f6020830185610ced565b8181036040830152610da18184610cfc565b9050949350505050565b60006080820190508181036000830152610dc58187610cfc565b9050610dd46020830186610ced565b8181036040830152610de68185610cfc565b9050610df56060830184610d35565b95945050505050565b60006040820190508181036000830152610e188185610cfc565b90508181036020830152610e2c8184610cfc565b90509392505050565b60006060820190508181036000830152610e4f8186610cfc565b9050610e5e6020830185610d35565b610e6b6040830184610ced565b949350505050565b60006060820190508181036000830152610e8d8186610cfc565b9050610e9c6020830185610d35565b8181036040830152610eae8184610cfc565b9050949350505050565b6000602082019050610ecd6000830184610d35565b92915050565b6000604051905081810181811067ffffffffffffffff82111715610efa57610ef96110d3565b5b8060405250919050565b600067ffffffffffffffff821115610f1f57610f1e6110d3565b5b602082029050602081019050919050565b600067ffffffffffffffff821115610f4b57610f4a6110d3565b5b601f19601f8301169050602081019050919050565b600081519050919050565b600082825260208201905092915050565b6000610f8782610f8e565b9050919050565b600073ffffffffffffffffffffffffffffffffffffffff82169050919050565b6000819050919050565b82818337600083830152505050565b60005b83811015610fe5578082015181840152602081019050610fca565b83811115610ff4576000848401525b50505050565b6000600282049050600182168061101257607f821691505b60208210811415611026576110256110a4565b5b50919050565b600061103782610fae565b91507fffffffffffffffffffffffffffffffffffffffffffffffffffffffffffffffff82141561106a57611069611075565b5b600182019050919050565b7f4e487b7100000000000000000000000000000000000000000000000000000000600052601160045260246000fd5b7f4e487b7100000000000000000000000000000000000000000000000000000000600052602260045260246000fd5b7f4e487b7100000000000000000000000000000000000000000000000000000000600052604160045260246000fd5b6000601f19601f8301169050919050565b61111c81610fae565b811461112757600080fd5b5056fe4c69737461206465207175656d20676f73746f7520646f20636f6e746575646f202573696e646963653a20256420646f20656e64657265636f2025732064657520756d206a6f696e6861206e6f20636f6e746575646f54656d6f7320756d20746f74616c206465202564206a6f696e6861732070617261206f20636f6e746575646f20257325732061646963696f6e6f75206f20636f6e746575646f20257320636f6d206f20636f6469676f3a202564a264697066735822122088a173f782d630157731a3a24191e3f467aee6c0aa709bbfc233bd2a5bbb648564736f6c634300080000334465706c6f7920646f20636f6e747261746f20666569746f20636f6d207375636573736f21",
  "linkReferences": {},
  "deployedLinkReferences": {}
}