{
  "_format": "hh-sol-artifact-1",
  "contractName": "LikesPortal",
  "sourceName": "contracts/LikesPortal.sol",
  "abi": [
    {
      "inputs": [],
      "stateMutability": "payable",
      "type": "constructor"
    },
    {
      "anonymous": false,
      "inputs": [
        {
          "indexed": true,
          "internalType": "address",
          "name": "from",
          "type": "address"
        },
        {
          "indexed": false,
          "internalType": "uint256",
          "name": "timestamp",
          "type": "uint256"
        },
        {
          "indexed": false,
          "internalType": "string",
          "name": "message",
          "type": "string"
        }
      ],
      "name": "NewLike",
      "type": "event"
    },
    {
      "inputs": [
        {
          "internalType": "string",
          "name": "_url",
          "type": "string"
        },
        {
          "internalType": "string[]",
          "name": "_labels",
          "type": "string[]"
        }
      ],
      "name": "addContent",
      "outputs": [],
      "stateMutability": "nonpayable",
      "type": "function"
    },
    {
      "inputs": [
        {
          "internalType": "uint256",
          "name": "contentId",
          "type": "uint256"
        }
      ],
      "name": "getTotalLikes",
      "outputs": [
        {
          "internalType": "uint256",
          "name": "",
          "type": "uint256"
        }
      ],
      "stateMutability": "view",
      "type": "function"
    },
    {
      "inputs": [
        {
          "internalType": "uint256",
          "name": "contentId",
          "type": "uint256"
        }
      ],
      "name": "like",
      "outputs": [],
      "stateMutability": "nonpayable",
      "type": "function"
    },
    {
      "inputs": [
        {
          "internalType": "uint256",
          "name": "contentId",
          "type": "uint256"
        }
      ],
      "name": "listContent",
      "outputs": [
        {
          "components": [
            {
              "internalType": "address",
              "name": "liker",
              "type": "address"
            },
            {
              "internalType": "uint256",
              "name": "timestamp",
              "type": "uint256"
            },
            {
              "internalType": "string",
              "name": "message",
              "type": "string"
            }
          ],
          "internalType": "struct LikesPortal.Like[]",
          "name": "",
          "type": "tuple[]"
        }
      ],
      "stateMutability": "view",
      "type": "function"
    }
  ],
  "bytecode": "0x6080604052620000336040518060600160405280602581526020016200200b602591396200005b60201b62000a841760201c565b606444426200004391906200020c565b6200004f9190620002a9565b60048190555062000350565b620000fb81604051602401620000729190620001cc565b6040516020818303038152906040527f41304fac000000000000000000000000000000000000000000000000000000007bffffffffffffffffffffffffffffffffffffffffffffffffffffffff19166020820180517bffffffffffffffffffffffffffffffffffffffffffffffffffffffff8381831617835250505050620000fe60201b60201c565b50565b62000124816200011f6200012760201b62000b1d176200014860201b60201c565b60201c565b50565b60006a636f6e736f6c652e6c6f679050600080835160208501845afa505050565b6200015c60201b62000f1717819050919050565b7f4e487b7100000000000000000000000000000000000000000000000000000000600052605160045260246000fd5b60006200019882620001f0565b620001a48185620001fb565b9350620001b681856020860162000273565b620001c1816200033f565b840191505092915050565b60006020820190508181036000830152620001e881846200018b565b905092915050565b600081519050919050565b600082825260208201905092915050565b6000620002198262000269565b9150620002268362000269565b9250827fffffffffffffffffffffffffffffffffffffffffffffffffffffffffffffffff038211156200025e576200025d620002e1565b5b828201905092915050565b6000819050919050565b60005b838110156200029357808201518184015260208101905062000276565b83811115620002a3576000848401525b50505050565b6000620002b68262000269565b9150620002c38362000269565b925082620002d657620002d562000310565b5b828206905092915050565b7f4e487b7100000000000000000000000000000000000000000000000000000000600052601160045260246000fd5b7f4e487b7100000000000000000000000000000000000000000000000000000000600052601260045260246000fd5b6000601f19601f8301169050919050565b611cab80620003606000396000f3fe608060405234801561001057600080fd5b506004361061004c5760003560e01c80630feb80e61461005157806333e4125a14610081578063e82935da146100b1578063ef2c7cd7146100cd575b600080fd5b61006b6004803603810190610066919061121d565b6100e9565b60405161007891906117bf565b60405180910390f35b61009b6004803603810190610096919061121d565b6101fe565b6040516100a891906115ae565b60405180910390f35b6100cb60048036038101906100c6919061121d565b61050f565b005b6100e760048036038101906100e291906111b1565b6109ea565b005b600061010c604051806060016040528060238152602001611bd860239139610a84565b6101e16040518060600160405280602f8152602001611bfb602f913960008085815260200190815260200160002060020154600080868152602001908152602001600020600001805461015e906119f1565b80601f016020809104026020016040519081016040528092919081815260200182805461018a906119f1565b80156101d75780601f106101ac576101008083540402835291602001916101d7565b820191906000526020600020905b8154815290600101906020018083116101ba57829003601f168201915b5050505050610b3e565b600080838152602001908152602001600020600201549050919050565b6060610221604051806060016040528060218152602001611c2a60219139610a84565b6102e0604051806060016040528060238152602001611b8260239139600080858152602001908152602001600020600001805461025d906119f1565b80601f0160208091040260200160405190810160405280929190818152602001828054610289906119f1565b80156102d65780601f106102ab576101008083540402835291602001916102d6565b820191906000526020600020905b8154815290600101906020018083116102b957829003601f168201915b5050505050610bdd565b600060016000848152602001908152602001600020805480602002602001604051908101604052809291908181526020016000905b8282101561043957838290600052602060002090600302016040518060600160405290816000820160009054906101000a900473ffffffffffffffffffffffffffffffffffffffff1673ffffffffffffffffffffffffffffffffffffffff1673ffffffffffffffffffffffffffffffffffffffff168152602001600182015481526020016002820180546103a8906119f1565b80601f01602080910402602001604051908101604052809291908181526020018280546103d4906119f1565b80156104215780601f106103f657610100808354040283529160200191610421565b820191906000526020600020905b81548152906001019060200180831161040457829003601f168201915b50505050508152505081526020019060010190610315565b50505050905061047f6040518060400160405280600e81526020017f74616d616e686f2064653a2025640000000000000000000000000000000000008152508251610c79565b60005b8151811015610505576104f2604051806060016040528060338152602001611ba560339139828484815181106104e1577f4e487b7100000000000000000000000000000000000000000000000000000000600052603260045260246000fd5b602002602001015160000151610d15565b80806104fd90611a23565b915050610482565b5080915050919050565b61054d6040518060400160405280601a81526020017f2e2e2e2e2e2e2e2e2e2e206c696b65202e2e2e2e2e2e2e2e2e2e000000000000815250610a84565b42601e600260003373ffffffffffffffffffffffffffffffffffffffff1673ffffffffffffffffffffffffffffffffffffffff1681526020019081526020016000205461059a919061191d565b106105da576040517f08c379a00000000000000000000000000000000000000000000000000000000081526004016105d19061177f565b60405180910390fd5b42600260003373ffffffffffffffffffffffffffffffffffffffff1673ffffffffffffffffffffffffffffffffffffffff16815260200190815260200160002081905550600080828152602001908152602001600020600201600081548092919061064490611a23565b9190505550600060405180606001604052803373ffffffffffffffffffffffffffffffffffffffff1681526020014281526020016000808581526020019081526020016000206000018054610698906119f1565b80601f01602080910402602001604051908101604052809291908181526020018280546106c4906119f1565b80156107115780601f106106e657610100808354040283529160200191610711565b820191906000526020600020905b8154815290600101906020018083116106f457829003601f168201915b505050505081525090506001600083815260200190815260200160002081908060018154018082558091505060019003906000526020600020906003020160009091909190915060008201518160000160006101000a81548173ffffffffffffffffffffffffffffffffffffffff021916908373ffffffffffffffffffffffffffffffffffffffff1602179055506020820151816001015560408201518160020190805190602001906107c5929190610f46565b505050606460045442446107d9919061191d565b6107e3919061191d565b6107ed9190611a6c565b6004819055506108346040518060400160405280601681526020017f232072616e646f6d69636f2067657261646f3a20256400000000000000000000815250600454610c79565b60326004541161087e5761087d6040518060400160405280600a81526020017f25732067616e686f75210000000000000000000000000000000000000000000081525033610db4565b5b6000655af3107a40009050478111156108cc576040517f08c379a00000000000000000000000000000000000000000000000000000000081526004016108c39061175f565b60405180910390fd5b60003373ffffffffffffffffffffffffffffffffffffffff16826040516108f290611599565b60006040518083038185875af1925050503d806000811461092f576040519150601f19603f3d011682016040523d82523d6000602084013e610934565b606091505b5050905080610978576040517f08c379a000000000000000000000000000000000000000000000000000000000815260040161096f9061179f565b60405180910390fd5b826000015173ffffffffffffffffffffffffffffffffffffffff167fb215190aeb1c97de96bd5c707b42f0f67ad08ba1f0ebdb6518fa52d6313e4e4284602001516000808881526020019081526020016000206000016040516109dc9291906117da565b60405180910390a250505050565b8160008060035481526020019081526020016000206000019080519060200190610a15929190610f46565b508060008060035481526020019081526020016000206001019080519060200190610a41929190610fcc565b50610a686040518060600160405280602b8152602001611c4b602b91393384600354610e50565b60036000815480929190610a7b90611a23565b91905055505050565b610b1a81604051602401610a9891906115d0565b6040516020818303038152906040527f41304fac000000000000000000000000000000000000000000000000000000007bffffffffffffffffffffffffffffffffffffffffffffffffffffffff19166020820180517bffffffffffffffffffffffffffffffffffffffffffffffffffffffff8381831617835250505050610ef2565b50565b60006a636f6e736f6c652e6c6f679050600080835160208501845afa505050565b610bd8838383604051602401610b569392919061171a565b6040516020818303038152906040527f5970e089000000000000000000000000000000000000000000000000000000007bffffffffffffffffffffffffffffffffffffffffffffffffffffffff19166020820180517bffffffffffffffffffffffffffffffffffffffffffffffffffffffff8381831617835250505050610ef2565b505050565b610c758282604051602401610bf3929190611675565b6040516020818303038152906040527f4b5c4277000000000000000000000000000000000000000000000000000000007bffffffffffffffffffffffffffffffffffffffffffffffffffffffff19166020820180517bffffffffffffffffffffffffffffffffffffffffffffffffffffffff8381831617835250505050610ef2565b5050565b610d118282604051602401610c8f9291906116ac565b6040516020818303038152906040527fb60e72cc000000000000000000000000000000000000000000000000000000007bffffffffffffffffffffffffffffffffffffffffffffffffffffffff19166020820180517bffffffffffffffffffffffffffffffffffffffffffffffffffffffff8381831617835250505050610ef2565b5050565b610daf838383604051602401610d2d939291906116dc565b6040516020818303038152906040527f1c7ec448000000000000000000000000000000000000000000000000000000007bffffffffffffffffffffffffffffffffffffffffffffffffffffffff19166020820180517bffffffffffffffffffffffffffffffffffffffffffffffffffffffff8381831617835250505050610ef2565b505050565b610e4c8282604051602401610dca9291906115f2565b6040516020818303038152906040527f319af333000000000000000000000000000000000000000000000000000000007bffffffffffffffffffffffffffffffffffffffffffffffffffffffff19166020820180517bffffffffffffffffffffffffffffffffffffffffffffffffffffffff8381831617835250505050610ef2565b5050565b610eec84848484604051602401610e6a9493929190611622565b6040516020818303038152906040527f91d1112e000000000000000000000000000000000000000000000000000000007bffffffffffffffffffffffffffffffffffffffffffffffffffffffff19166020820180517bffffffffffffffffffffffffffffffffffffffffffffffffffffffff8381831617835250505050610ef2565b50505050565b610f0981610f01610b1d610f0c565b63ffffffff16565b50565b610f17819050919050565b7f4e487b7100000000000000000000000000000000000000000000000000000000600052605160045260246000fd5b828054610f52906119f1565b90600052602060002090601f016020900481019282610f745760008555610fbb565b82601f10610f8d57805160ff1916838001178555610fbb565b82800160010185558215610fbb579182015b82811115610fba578251825591602001919060010190610f9f565b5b509050610fc8919061102c565b5090565b82805482825590600052602060002090810192821561101b579160200282015b8281111561101a57825182908051906020019061100a929190610f46565b5091602001919060010190610fec565b5b5090506110289190611049565b5090565b5b8082111561104557600081600090555060010161102d565b5090565b5b808211156110695760008181611060919061106d565b5060010161104a565b5090565b508054611079906119f1565b6000825580601f1061108b57506110aa565b601f0160209004906000526020600020908101906110a9919061102c565b5b50565b60006110c06110bb8461183b565b61180a565b9050808382526020820190508260005b8581101561110057813585016110e68882611172565b8452602084019350602083019250506001810190506110d0565b5050509392505050565b600061111d61111884611867565b61180a565b90508281526020810184848401111561113557600080fd5b6111408482856119af565b509392505050565b600082601f83011261115957600080fd5b81356111698482602086016110ad565b91505092915050565b600082601f83011261118357600080fd5b813561119384826020860161110a565b91505092915050565b6000813590506111ab81611b6a565b92915050565b600080604083850312156111c457600080fd5b600083013567ffffffffffffffff8111156111de57600080fd5b6111ea85828601611172565b925050602083013567ffffffffffffffff81111561120757600080fd5b61121385828601611148565b9150509250929050565b60006020828403121561122f57600080fd5b600061123d8482850161119c565b91505092915050565b6000611252838361152b565b905092915050565b61126381611973565b82525050565b61127281611973565b82525050565b6000611283826118bc565b61128d81856118df565b93508360208202850161129f85611897565b8060005b858110156112db57848403895281516112bc8582611246565b94506112c7836118d2565b925060208a019950506001810190506112a3565b50829750879550505050505092915050565b60006112f8826118c7565b61130281856118fb565b93506113128185602086016119be565b61131b81611b59565b840191505092915050565b6000611331826118c7565b61133b818561190c565b935061134b8185602086016119be565b61135481611b59565b840191505092915050565b6000815461136c816119f1565b611376818661190c565b9450600182166000811461139157600181146113a3576113d6565b60ff19831686526020860193506113d6565b6113ac856118a7565b60005b838110156113ce578154818901526001820191506020810190506113af565b808801955050505b50505092915050565b60006113ec60338361190c565b91507f54656e74616e646f207361636172206d6169732064696e686569726f2071756560008301527f206f20636f6e747261746f20706f737375692e000000000000000000000000006020830152604082019050919050565b6000611452602b8361190c565b91507f45737065726520333020736567756e646f732070617261206f2070726f78696d60008301527f6f206a6f696e68612121210000000000000000000000000000000000000000006020830152604082019050919050565b60006114b86000836118f0565b9150600082019050919050565b60006114d260258361190c565b91507f46616c686f7520656d2073616361722064696e686569726f20646f20636f6e7460008301527f7261746f2e0000000000000000000000000000000000000000000000000000006020830152604082019050919050565b6000606083016000830151611543600086018261125a565b506020830151611556602086018261157b565b506040830151848203604086015261156e82826112ed565b9150508091505092915050565b611584816119a5565b82525050565b611593816119a5565b82525050565b60006115a4826114ab565b9150819050919050565b600060208201905081810360008301526115c88184611278565b905092915050565b600060208201905081810360008301526115ea8184611326565b905092915050565b6000604082019050818103600083015261160c8185611326565b905061161b6020830184611269565b9392505050565b6000608082019050818103600083015261163c8187611326565b905061164b6020830186611269565b818103604083015261165d8185611326565b905061166c606083018461158a565b95945050505050565b6000604082019050818103600083015261168f8185611326565b905081810360208301526116a38184611326565b90509392505050565b600060408201905081810360008301526116c68185611326565b90506116d5602083018461158a565b9392505050565b600060608201905081810360008301526116f68186611326565b9050611705602083018561158a565b6117126040830184611269565b949350505050565b600060608201905081810360008301526117348186611326565b9050611743602083018561158a565b81810360408301526117558184611326565b9050949350505050565b60006020820190508181036000830152611778816113df565b9050919050565b6000602082019050818103600083015261179881611445565b9050919050565b600060208201905081810360008301526117b8816114c5565b9050919050565b60006020820190506117d4600083018461158a565b92915050565b60006040820190506117ef600083018561158a565b8181036020830152611801818461135f565b90509392505050565b6000604051905081810181811067ffffffffffffffff8211171561183157611830611b2a565b5b8060405250919050565b600067ffffffffffffffff82111561185657611855611b2a565b5b602082029050602081019050919050565b600067ffffffffffffffff82111561188257611881611b2a565b5b601f19601f8301169050602081019050919050565b6000819050602082019050919050565b60008190508160005260206000209050919050565b600081519050919050565b600081519050919050565b6000602082019050919050565b600082825260208201905092915050565b600081905092915050565b600082825260208201905092915050565b600082825260208201905092915050565b6000611928826119a5565b9150611933836119a5565b9250827fffffffffffffffffffffffffffffffffffffffffffffffffffffffffffffffff0382111561196857611967611a9d565b5b828201905092915050565b600061197e82611985565b9050919050565b600073ffffffffffffffffffffffffffffffffffffffff82169050919050565b6000819050919050565b82818337600083830152505050565b60005b838110156119dc5780820151818401526020810190506119c1565b838111156119eb576000848401525b50505050565b60006002820490506001821680611a0957607f821691505b60208210811415611a1d57611a1c611afb565b5b50919050565b6000611a2e826119a5565b91507fffffffffffffffffffffffffffffffffffffffffffffffffffffffffffffffff821415611a6157611a60611a9d565b5b600182019050919050565b6000611a77826119a5565b9150611a82836119a5565b925082611a9257611a91611acc565b5b828206905092915050565b7f4e487b7100000000000000000000000000000000000000000000000000000000600052601160045260246000fd5b7f4e487b7100000000000000000000000000000000000000000000000000000000600052601260045260246000fd5b7f4e487b7100000000000000000000000000000000000000000000000000000000600052602260045260246000fd5b7f4e487b7100000000000000000000000000000000000000000000000000000000600052604160045260246000fd5b6000601f19601f8301169050919050565b611b73816119a5565b8114611b7e57600080fd5b5056fe4c69737461206465207175656d20676f73746f7520646f20636f6e746575646f202573696e646963653a20256420646f20656e64657265636f2025732064657520756d206a6f696e6861206e6f20636f6e746575646f2e2e2e2e2e2e2e2e2e2e20676574546f74616c4c696b6573202e2e2e2e2e2e2e2e2e2e54656d6f7320756d20746f74616c206465202564206a6f696e6861732070617261206f20636f6e746575646f2025732e2e2e2e2e2e2e2e2e2e206c697374436f6e74656e74202e2e2e2e2e2e2e2e2e2e25732061646963696f6e6f75206f20636f6e746575646f20257320636f6d206f20636f6469676f3a202564a26469706673582212200bac2c9a0148f3135be4fbf93f448123fd441203a8c813d0dce2bd94304c960b64736f6c634300080000334465706c6f7920646f20636f6e747261746f20666569746f20636f6d207375636573736f21",
  "linkReferences": {},
  "deployedLinkReferences": {}
}